:100000000C9415070C9432070C9432070C943207A9
:100010000C94D91C0C9432070C9432070C943207C0
:100020000C9432070C942A1D0C9432070C9432075E
:100030000C9432070C9432070C9432070C9432075C
:100040000C9486120C9432070C94D7100C9432073F
:100050000C94FE100C9495140C9432070C943207F7
:100060000C9434070C9432070C9432070C9432072A
:100070000C94B0100C9432070C9432070C94320795
:100080000C9432070C9432070C9432070C9432070C
:100090000C9432070C9432070C9432070C943207FC
:1000A0000C9432070C9432070C9432070C943207EC
:1000B0000C9432074F079D079D079D079D079D07DD
:1000C0009D079D074F079D079D079D079D079D075E
:1000D0009D079D0751079D079D079D079D079D074C
:1000E0009D079D079D079D079D079D079D079D07F0
:1000F0009D079D0751079D079D079D079D079D072C
:100100009D079D079D079D079D079D079D079D07CF
:100110009D079D0799079D079D079D079D079D07C3
:100120009D079D0778079D079D079D079D079D07D4
:100130009D079D079D079D079D079D079D079D079F
:100140009D079D076C079D079D079D079D079D07C0
:100150009D079D078A075E0FAB10AB10AB10AB106D
:10016000AB10AB10AB10AB10AB10890F980FAB10EE
:10017000AB10AB10AB10AB10AB10AB10AB10B70F9C
:10018000BD0FCA0FD00FAB10AB10AB10AB10AB1044
:10019000AB10DE0FAB10AB10AB10AB10AB10AB1055
:1001A000AB10AB10AB10FB0F0A10AB10AB10AB10C9
:1001B000AB10AB10AB10AB10AB10AB107A108710BC
:1001C00096109610961096109610961096109610FF
:1001D0009C10A410084AD73B3BCE016E84BCBFFDE7
:1001E000C12F3D6C74319ABD56833DDA3D00C77F07
:1001F00011BED9E4BB4C3E916BAAAABE00000080A0
:100200003F003435300034353000672F600034351E
:100210006000DC273000DC2730003B2AC00034358A
:10022000300034353000672F6000343560008323A0
:10023000300083233000DC27C000343530003435F3
:1002400030009A1A6000A31F6000DC2760003B2A80
:100250006000672F2001DC1D3000DC1D3000A31F73
:100260006000DC2760008323300083233000DC271C
:10027000C000000060000000800100008001FFFF5E
:10028000FFFFDC1D3000DC1D3000DC1D3000DC1DFC
:100290003000DC1D3000DC1D3000DC1D3000DC1DBA
:1002A0003000DC1D3000DC1D3000DC1D3000DC1DAA
:1002B0003000B3173000B3173000B3173000B31756
:1002C0003000B3173000B31730005F1630005F16F0
:1002D00030005F1630005F163000B31730009A1AF6
:1002E0003000DC1D3000DC1D3000DC1D3000DC1D6A
:1002F0003000DC1D3000DC1D3000DC1D3000DC1D5A
:100300003000DC1D3000DC1D3000DC1D3000DC1D49
:100310003000B3173000B3173000B3173000B317F5
:100320003000B3173000B31730005F163000DC1D0B
:100330003000C11130005F16300000003000C111E4
:100340003000EE1360005F163000B31760009A1A99
:100350003000DC1D6000DC1D3000DC1D30009A1A0E
:100360003000DC1D300084216000842130008421B5
:100370003000DC1D300084213000832360008323A3
:1003800030008323600083233000EE1360005F168B
:100390003000B31760009A1A3000DC1D6000DC1DCD
:1003A0003000DC1D30009A1A3000DC1D3000842142
:1003B00060008421300084213000DC1D3000842165
:1003C000300083236000832330008323600000001B
:1003D0003000DC1D30002F1C30009A1A3000DC1D6C
:1003E00030002F1C30009A1A3000DC1D30002F1C0A
:1003F00030009A1A3000DC1D30002F1C30009A1A91
:1004000030009A1A30001C193000B31730009A1AC5
:1004100030001C193000B31730005F1630005F1633
:1004200030005F1630005F163000B31730009A1AA4
:100430003000DC1D30002F1C30009A1A3000DC1D0B
:1004400030002F1C30009A1A3000DC1D30002F1CA9
:1004500030009A1A3000DC1D30002F1C30009A1A30
:1004600030009A1A30001C193000B31730009A1A65
:1004700030001C193000B31730005F163000DC1D4F
:10048000300083233000BE2C300000003000C1114A
:100490003000EE1360005F163000B31760009A1A48
:1004A0003000DC1D6000DC1D3000DC1D30009A1ABD
:1004B0003000DC1D30008421600084213000842164
:1004C0003000DC1D30008421300083236000832352
:1004D00030008323600083233000EE1360005F163A
:1004E0003000B31760009A1A3000DC1D6000DC1D7C
:1004F0003000DC1D30009A1A3000DC1D30008421F1
:1005000060008421300084213000DC1D3000842113
:1005100030008323600083233000832360000000C9
:100520003000000060000000800100008001FFFF3B
:10053000FFFFB31730001C193000B31730001C192F
:100540003000B3173000A31F30009A1A3000DC1DB2
:1005500030008323600000003000B93B3000672F7B
:10056000300083233000A31F600000003000672F9D
:1005700030009F253000A31F3000DC1D600000000C
:100580003000672F3000B31730001C193000B3174C
:1005900030001C193000B3173000A31F30009A1A26
:1005A0003000DC1D30008323600000003000B93BC8
:1005B0003000672F300083233000A31F600000004D
:1005C0003000672F3000DC1D3000A31F3000832374
:1005D000600000003000A31F3000DC1D30009A1ABC
:1005E0003000B317600000003000DC2730005F16D9
:1005F0003000B31730009A1A600000003000BE2CA3
:100600003000B31730009A1A3000DC1D6000000083
:100610003000672F30009A1A3000DC1D3000A31F15
:100620006000672F3000B3173000B3173000672F1A
:100630003000672F3000B3173000000030001C1965
:100640003000B31730001C193000B31730001C19EC
:100650003000B3173000A31F30009A1A3000DC1DA1
:1006600030008323600000003000B93B3000672F6A
:10067000300083233000A31F600000003000672F8C
:1006800030009F253000A31F3000DC1D60000000FB
:100690003000672F3000B31730001C193000B3173B
:1006A00030001C193000B3173000A31F30009A1A15
:1006B0003000DC1D30008323600000003000B93BB7
:1006C0003000672F300083233000A31F600000003C
:1006D0003000672F3000DC1D3000A31F3000832363
:1006E000C000000060000000800100008001FFFFEA
:1006F000FFFFDC276000DC276000672F3000BE2C86
:100700003000DC2760008323600083236000DC2747
:10071000C000DC276000DC1D6000B31760009A1A7F
:100720003000DC1D30009A1A8001B3176000B31747
:1007300060009A1A60009A1A6000DC1D60009A1A24
:100740003000DC1D30008323600083236000DC2741
:100750006000DC276000DC276000672F3000832307
:100760003000B93B80013435600034356000672FBC
:100770006000B93B60003435600034356000672F9D
:100780006000DC27600083236000DC1D6000B3177D
:1007900060009A1A3000DC1D30009A1A8001B317ED
:1007A0006000B31760009A1A60009A1A6000DC1D9E
:1007B00060009A1A3000DC1D300083236000832320
:1007C0006000DC276000DC276000DC276000672F0A
:1007D000300034353000B93B80010000600000007B
:1007E000800100008001FFFFFFFFB93B6000B93BC3
:1007F0006000DC276000DC27600083236000832327
:100800006000DC27C000BE2C6000BE2C6000672F9B
:100810006000672F60003435600034356000B93BFC
:10082000C000DC276000DC276000BE2C6000BE2C0E
:100830006000672F6000672F60003435C000DC2740
:100840006000DC276000BE2C6000BE2C6000672FBB
:100850006000672F60003435C000B93B6000B93BD1
:100860006000DC276000DC276000832360008323B6
:100870006000DC27C000BE2C6000BE2C6000672F2B
:100880006000672F60003435600034356000B93B8C
:10089000C000000060000000800100008001FFFF38
:1008A000FFFFB93B3000BE2C3000DC273000832333
:1008B0003000DC273000BE2C3000DC2720018323F1
:1008C0006000BE2C3000DC273000BE2C30003435F8
:1008D0003000B93B2001B93B3000BE2C3000DC2792
:1008E000300083233000DC273000BE2C3000DC27B2
:1008F000200183236000BE2C3000DC27300034351B
:100900003000672F3000BE2C2001DC273000DC27B0
:100910003000DC273000BE2C3000DC273000832381
:100920003000BE2C20019A1A60009A1A3000DC1D9B
:10093000600083233000DC272001DC1D300083238E
:100940003000DC273000BE2C3000DC273000832351
:10095000300034352001B93B6000BE2C3000672FD9
:100960003000BE2C3000DC273000BE2C20010000FF
:1009700060000000800100008001FFFFFFFFB93B25
:10098000900034353000672F9000B93B3000672F5E
:100990006000B93B6000672FC00034359000672FBE
:1009A0003000BE2C3000BE2C3000672F30003435B4
:1009B0003000BE2C200100006000672F9000BE2C8C
:1009C0003000DC273000DC273000672F3000672F35
:1009D0003000DC276000672F6000DC27C000BE2CE1
:1009E0009000DC2730008323300083233000DC2795
:1009F0003000BE2C30008323200100006000DC2783
:100A00009000B93B300034353000672F3000BE2CE9
:100A10003000DC27300083232001000060008323A6
:100A2000900034353000672F3000BE2C3000DC27BA
:100A3000300083233000A31F200100006000A31FAB
:100A40009000672F3000BE2C30009F25300083239C
:100A50003000A31F3000DC1D2001A31F3000A31FA6
:100A6000300083236000BE2C6000A31F6000DC27E1
:100A70006000DC1D2001000060000000800100001B
:100A80008001FFFFFFFF0000000000000000007D6C
:100A90000000000000600060000000143E143E14DE
:100AA0000000122A7F2A24000061660833430000F8
:100AB0003649552205000000506000000000001C6F
:100AC00022410000000041221C00000014083E08E2
:100AD00014000008083E0808000000050600000099
:100AE00000080808080800000003030000000002D6
:100AF0000408102000003E4549513E00000010202F
:100B00007F00000021434549310000224149493618
:100B100000000C14247F040000725151514E00005B
:100B20003E49494926000040404748700000364988
:100B30004949360000324949493E00000036360036
:100B400000000000353600000000081422410000BB
:100B50000014141414140000004122140800002092
:100B60004045483000003E414D553D00003F48485B
:100B7000483F00007F4949493600003E414141223B
:100B800000007F4141413E00007F4949494100004A
:100B90007F4848484000003E4141492E00007F0800
:100BA00008087F000000417F4100000006010101AC
:100BB0007E00007F0814224100007F010101010036
:100BC000007F2018207F00007F2010087F00003E5B
:100BD0004141413E00007F4848483000003C4242CD
:100BE000423D00007F4848483700003249494926C5
:100BF000000040407F404000007E0101017E000077
:100C00007C0201027C00007F0204027F000041227E
:100C10001C2241000070080708700000434549513C
:100C2000610000007F410000000020100804020065
:100C3000000000417F000000102040201000000153
:100C40000101010100000040201000000002151504
:100C5000150F00007F1111110E00000E111111115E
:100C600000000E1111117F00000E1515150C00006B
:100C700010103F50500000081515151E00007F0889
:100C800010100F000000115F010000000201115E52
:100C90000000007F040A1100000000417F010000F5
:100CA000001F100F100F00001F0810100F00000E83
:100CB0001111110E00001F14141408000008141460
:100CC000141F0000001F0810100000091515150260
:100CD000000010107E111100001E0101021F000013
:100CE0001C0201021C00001E0106011E0000110A68
:100CF000040A110000180505051E0000111315193E
:100D00001100000008364141000000007F00000093
:100D10000041413608000000204020102000007FE4
:100D20007F7F7F7F00000034020202340000320423
:100D300004043200281006060610282012040404B9
:100D4000122028100202021010101C1202121C1095
:100D5000102812021228102010240A241020786073
:100D600050480402010F03050910204040201009DB
:100D700005030F010204485060780810207F2010FE
:100D8000080804027F020408080808492A1C080809
:100D90001C2A49080808081D3D7F3D1D0836777745
:100DA00008777736081C3E7F3E1C08183C3E1F3EE5
:100DB0003C181C22414141221C41221408142241AA
:100DC000060A1222120A067F41414141417F020771
:100DD000077E201800033F2020437F0000001400FE
:100DE0007F007F00000008000000000010000400E9
:100DF0000000200008000200002200000022000085
:100E0000220008002200002A0000002A00201122EF
:100E10005C2211200808235C2308087F7F7F7F7FE6
:100E20007F7F000000000000000011241FBECFEFF4
:100E3000D8E0DEBFCDBF11E0A0E0B1E0E6E0F2E532
:100E400002C005900D92A639B107D9F724E0A6E9B2
:100E5000B1E001C01D92A038B207E1F70E948122E3
:100E60000C9401290C9400001F920F920FB60F9260
:100E700011242F933F938F939F93AF93BF93EF933F
:100E8000FF93E091B9008E2F90E0FC013897E13597
:100E9000F10508F052C0E65AFF4F0C942828109232
:100EA000E201E091E20180910503E81770F481E02E
:100EB0008E0F8093E201F0E0E35FFB4F808180932F
:100EC000BB0085E88093BC003FC081E08093FE03B7
:100ED00084E98093BC0038C0E091E20181E08E0F8C
:100EE0008093E2018091BB00F0E0E35FFB4F8083E1
:100EF0002091E20130E08091050390E001972817EE
:100F0000390724F485EC8093BC001EC085E88093EB
:100F1000BC001AC08091BB00E091E201F0E0E35F09
:100F2000FB4F808381E08093FE0384E98093BC00C3
:100F30000BC085EA8093BC0007C08091B900809304
:100F40004C0184E98093BC00FF91EF91BF91AF9178
:100F50009F918F913F912F910F900FBE0F901F90F7
:100F6000189588E48093B8001092B9008FEF8093B1
:100F7000BB0084E08093BC0008958EE291E0ECEB2E
:100F8000F0E002C0019719F0208120FDFBCF809195
:100F90004C010895CF93DF93EC012EE231E0ECEBAE
:100FA000F0E003C02150310919F0908190FDFACF93
:100FB00060930503888180930D04888180FD12C0B1
:100FC000623080F0FE013196AEE0B4E06250262F30
:100FD00030E02E5F3F4F2C0F3D1F91919D93E21704
:100FE000F307D9F71092160388EF80934C0185EA36
:100FF0008093BC00DF91CF910895AC01ECEBF0E061
:10100000908190FDFDCF8091FE03882389F06623B7
:1010100079F0ADE0B4E0FA016150262F30E02F5FA7
:101020003F4F240F351F9D919193E217F307D9F796
:101030008091FE030895CF93DF9300D01F92CDB728
:10104000DEB7880F89836A834B8363E0CE01019604
:101050000E94CA070F900F900F90DF91CF910895D3
:10106000BF92CF92DF92EF92FF920F931F93CF9395
:10107000DF9300D0CDB7DEB79091BC0090FD2AC0C1
:1010800030E02115310531F16A01B82EBB0C8B2DF2
:101090008160E82E8A01C20ED31EF62EF80110825E
:1010A000B982FA8262E0CE0101960E94CA07E98203
:1010B00062E0CE0101960E94CA0762E0CE0101966D
:1010C0000E94FD079A81F80191938F01F394EC152A
:1010D000FD0521F70F900F90DF91CF911F910F9198
:1010E000FF90EF90DF90CF90BF900895CF92DF9266
:1010F000EF92FF92C0906A03D0906B03E0906C0374
:10110000F0906D0320912E0230912F024091300219
:1011100050913102C701B6010E94B525882344F4DD
:10112000C0922E02D0922F02E0923002F092310251
:1011300020912A0230912B0240912C0250912D02D5
:10114000C701B6010E943B27181644F4C0922A0238
:10115000D0922B02E0922C02F0922D02C09011034B
:10116000D0901203E0901303F09014032091260214
:10117000309127024091280250912902C701B601FF
:101180000E94B525882344F4C0922602D0922702FB
:10119000E0922802F092290220912202309123024B
:1011A0004091240250912502C701B6010E943B27BD
:1011B000181644F4C0922202D0922302E092240234
:1011C000F0922502C0905D03D0905E03E0905F0333
:1011D000F090600320911E0230911F024091200286
:1011E00050912102C701B6010E94B525882344F41D
:1011F000C0921E02D0921F02E0922002F0922102C1
:1012000020911A0230911B0240911C0250911D0244
:10121000C701B6010E943B27181644F4C0921A0277
:10122000D0921B02E0921C02F0921D02FF90EF9000
:10123000DF90CF90089580916A0390916B03A09105
:101240006C03B0916D0380932E0290932F02A093B4
:101250003002B093310280932A0290932B02A09324
:101260002C02B0932D028091110390911203A09152
:101270001303B09114038093260290932702A09346
:101280002802B09329028093220290932302A09314
:101290002402B093250280915D0390915E03A0919A
:1012A0005F03B091600380931E0290931F02A0938E
:1012B0002002B093210280931A0290931B02A09304
:1012C0001C02B0931D020895882319F0813071F03B
:1012D00019C046EF58E26CE97FE3409373045093E2
:1012E000740460937504709376040CC043E353E375
:1012F0006BE870E440937304509374046093750436
:1013000070937604482F4295407F69E08DE00E94FB
:101310001B080895623308F079C06150823031F5BE
:1013200085E2689F912D1124862F891B8695890F50
:1013300086958695E82FF0E0DF01AE5FBD4F2C91DA
:10134000982F990F990F990F981B691B81E090E0D6
:1013500002C0880F991F6A95E2F7922F982B9C93F1
:10136000EE58FC4F9081892B80830895813039F5A8
:1013700085E2689F912D1124862F891B8695890F00
:1013800086958695E82FF0E0DF01AE5FBD4F2C918A
:10139000982F990F990F990F981B691B81E090E086
:1013A00002C0880F991F6A95E2F78095922F9823C3
:1013B0009C93EE58FC4F908189238083089583305D
:1013C00029F585E2689F912D1124862F891B86952A
:1013D000890F86958695E82FF0E0DF01AE5FBD4F5F
:1013E0002C91982F990F990F990F981B691B81E0E9
:1013F00090E002C0880F991F6A95E2F7922F982714
:101400009C93EE58FC4F9081892780830895882310
:1014100009F1815095E2899F212D1124982F921B6B
:101420009695920F96959695E92FF0E0EE5FFD4F19
:101430004081292F220F220F220F291B821B21E01E
:1014400030E0B90102C0660F771F8A95E2F7CB0141
:101450008423089580E00895809178049091790420
:1014600081359105B8F08091ED01811113C0809113
:101470003E018093540481E080931002E1ECF0E09F
:1014800080818064808382E48093C6001092790416
:101490001092780480913D0181111092ED01089520
:1014A0008F929F92AF92BF92CF92DF92EF92FF9274
:1014B0000F931F93CF93DF93C091E001D091E1018F
:1014C000FE01EE0FFF1FEE0FFF1FE55EFE4F808057
:1014D0009180A280B38040E050E0C12CD12C7601F5
:1014E00060E0A8E0B2E0AC1BBD0B2C91CA0130E07B
:1014F000042E02C0359527950A94E2F720FF23C0F9
:101500004C175D0780F0FA01EE0FFF1FEE0FFF1F73
:10151000E15EFE4F0081118122813381C02AD12AF0
:10152000E22AF32A0FC0880F991F880F991FFC0128
:10153000E55EFE4F0081118122813381C02AD12ACC
:10154000E22AF32A6F5F4F5F5F4F4730510569F61C
:101550008091DF0181112EC08BB187718BB985B16C
:10156000837D85B970988AB187718D298AB984B1D4
:10157000837D84B984B18C2984B98DB18E7F8E2905
:101580008DB98BB133272B2D1A2D092D802B8BB9BB
:1015900085B1882985B94EB1C501AA27BB27482B3B
:1015A0004EB94AB1042B0AB924B1822A84B82DB1AC
:1015B000822B8DB92091DF01862F90E0422F022EE1
:1015C000000C550B4817590714F4611114C0809191
:1015D000E0019091E1018630910530F401969093FD
:1015E000E1018093E00104C01092E1011092E0015A
:1015F0001092DF0103C02F5F2093DF01DF91CF91B5
:101600001F910F91FF90EF90DF90CF90BF90AF9020
:101610009F908F9008950F931F9380913B018111AC
:1016200079C04091E7015091E8016091E901709122
:10163000EA01452B462B472B61F490913C019130F8
:1016400021F497E09093EB016BC09EE09093EB0147
:1016500067C04091FA015091FB0160E070E0009199
:10166000E7011091E8012091E9013091EA010417A6
:1016700015072607370708F060C01092FB0110928B
:10168000FA0180913B01811147C03091EB0180E06C
:1016900090E0432F50E0FA01E80FF91FEE58FC4F9D
:1016A0002081FC01EE5FFD4F20830196873091057C
:1016B00091F781E0830F8093EB019091EC01911100
:1016C00002C026E001C020E040913C0190E030E003
:1016D00057E0459F200D311D112428173907F4F4D8
:1016E0001092EB0181E080933B01809101028F5FBA
:1016F0008093010280E090E0FC01EE5FFD4F2081CD
:10170000FC01EE58FC4F2083019687309105A1F72C
:1017100081E013C080E011C081E00FC081E00DC006
:1017200041E050E060E070E04093E7015093E80151
:101730006093E9017093EA018CCF1F910F91089596
:10174000CF93DF93DC01EA011092EB0187E0689F01
:10175000B00111246A5F7F4F20E030E090E0FD018E
:10176000E90FF11D50815F77F901E758FC4F508375
:101770009F5F292F30E0621773078CF7993020F0B4
:1017800082E080933C0103C081E080933C0181E0D2
:101790008093EC0110923B01AE0160E070E0409359
:1017A000E7015093E8016093E9017093EA01DF914A
:1017B000CF910895882399F11092EB01815027E091
:1017C000829FC00111248A5D924F27E030E0FC0126
:1017D00045915491F901EE58FC4F408301962F5FDB
:1017E0003F4F2E30310599F781E080933C01E2E7CD
:1017F000F3E016861786108A118A128A138A148AD1
:101800008093EC0110923B01CB01A0E0B0E080930B
:10181000E7019093E801A093E901B093EA010895EC
:10182000CF92DF92EF92FF920F931F93CF93DF93AC
:1018300000D000D01F92CDB7DEB7FC016623C9F0FF
:1018400080913B01882381F010923B018091DA0165
:101850009091DB018E179F07D9F01092EB01F09366
:10186000DB01E093DA0114C0E091DA01F091DB01D1
:101870000FC010923B018091DA019091DB01E817D3
:10188000F90731F01092EB01F093DB01E093DA01FC
:101890009F01329522952F7023273F702327A7E4BD
:1018A000B3E00E942E288C01169507951695079592
:1018B000169507950D8320E137E2029FC001039F33
:1018C000900D129F900D11249F01281B390B369506
:1018D00027953695279536952795A5ECB0E20E9479
:1018E0002E28929582958F7089279F708927F82ED0
:1018F0008C839F01369527953695279536952795A4
:101900000E942E28929582958F7089279F70892733
:1019100068EE73E0869F9001879F300D969F300D93
:101920001124CF01821B930B9C0136952795369588
:101930002795ABE7B4E10E942E2896958795E82E6F
:101940008B839F0136952795369527950E942E28E3
:101950009695879564E6689F9001699F300D1124E4
:10196000CF01821B930B9C01ADECBCEC0E942E2896
:10197000969587959695879596958795D82E8A837F
:101980009F010E942E289695879596958795969506
:1019900087959C01220F331F880F991F880F991F6D
:1019A000880F991F820F931FE81BF90BE983012B06
:1019B00009F051C0F11052C0E11053C0D11054C011
:1019C00001E010E053C0282F30E0FB01A591B49155
:1019D000F901EE58FC4FA0838F5F6F5F7F4F981324
:1019E000F2CF892F0E151F05A1F0F80122918F016A
:1019F00030E0205F3F4FB901660F771F660F771FFA
:101A0000660F771F621B730B6A57754F97E0980F2D
:101A1000DACF9C2D990F990F990F9C198EE0890FA1
:101A2000C394C0923C019B5EE82FF0E0EE58FC4F5F
:101A300010828F5F9813F8CF10923B011092EC0147
:101A400060E070E04093E7015093E8016093E901A2
:101A50007093EA0118C005E010E008C004E010E04F
:101A600005C003E010E002C002E010E06801F1E010
:101A7000CF1AD10881E090E08C0F9D1F080F191F2D
:101A80007C0187E0B2CF0F900F900F900F900F90D6
:101A9000DF91CF911F910F91FF90EF90DF90CF904A
:101AA000089521E02093E6019F77909304038093AB
:101AB0000303089591E09093E5018F778093E4010B
:101AC0000895009741F020E42093800090938900CE
:101AD00080938800089510928000299A10928900BE
:101AE0001092880008958091E601882399F081E0A2
:101AF0008093D9011092E6011092D8011092D7017B
:101B00008091030390910403892BA1F483E08093D7
:101B1000D90147C08091D901813061F030F0823025
:101B200029F1833009F044C03CC01092D8011092D2
:101B3000D7010895289A80910303909104030E948D
:101B4000610D8091D7019091D80101969093D801B1
:101B50008093D701449760F18091D9018F5F809382
:101B6000D9011092D8011092D70108952898809138
:101B7000D7019091D80101969093D8018093D70115
:101B8000813D9740A8F08091D9018F5F8093D90162
:101B900080E090E00E94610D1092D8011092D70170
:101BA0000895289880E090E00E94610D1092D9017C
:101BB0000895CF93DF938091E501882351F181E06F
:101BC0008093FC011092E5011092FE011092FD013C
:101BD000109200021092FF018091E401811119C05E
:101BE00085E08093FC018091FC01823009F49AC069
:101BF00038F4882309F47CC0813009F42EC132C145
:101C0000843009F4D5C008F4A4C0853009F4F4C0C8
:101C100029C18091E401813059F4E091FD01F091F6
:101C2000FE01EE0FFF1FE258F64FC591D4914EC052
:101C3000823059F4E091FD01F091FE01EE0FFF1F9B
:101C4000EE55F74FC591D49141C0833059F4E091DE
:101C5000FD01F091FE01EE0FFF1FE651F84FC59117
:101C6000D49134C0843059F4E091FD01F091FE012B
:101C7000EE0FFF1FEE50F94FC591D49127C085306C
:101C800059F4E091FD01F091FE01EE0FFF1FEE5CB3
:101C9000FA4FC591D4911AC0863059F4E091FD01F4
:101CA000F091FE01EE0FFF1FEE57FD4FC591D4914D
:101CB0000DC0873009F0BDC0E091FD01F091FE013B
:101CC000EE0FFF1FEE5FFD4FC591D4918091FC0197
:101CD000823041F128F4882359F0813071F0C2C07C
:101CE000843009F46AC0D0F1853009F485C0BAC0E7
:101CF0001092FE011092FD01B5C0CE010E94610D4F
:101D0000CD2B09F0289A8091FD019091FE0101965A
:101D10009093FE018093FD018091FC018F5F809381
:101D2000FC01A0C08091FF01909100020196909368
:101D300000028093FF01449708F494C010920002BF
:101D40001092FF018091FC018F5F8093FC01289825
:101D500089C0C0E0D0E002C0C0E0D0E08091FF01C7
:101D6000909100020196909300028093FF01C5506C
:101D7000D04CCC0FDD1FCC0FDD1F8C179D0708F456
:101D800071C080E090E00E94610D8091FD01909112
:101D9000FE0101969093FE018093FD0110920002D6
:101DA0001092FF018091FC018F5F8093FC015AC06B
:101DB000C0E0D0E002C0C0E0D0E08091FF0190918F
:101DC00000020196909300028093FF01109200029E
:101DD0001092FF0181E08093FC01219609F042C03E
:101DE0001092FE011092FD011092FC0180911302ED
:101DF0008F5F8093130236C028988091FF019091E5
:101E000000020196909300028093FF018D32914071
:101E100048F180E090E00E94610D10920002109263
:101E2000FF011092FC011EC080E090E00E94610D55
:101E30006ACF8091FC01823009F474CF30F488239A
:101E400009F456CF813081F30DC0843009F4B3CF4B
:101E500008F482CF853081F205C080E090E00E94D6
:101E6000610D51CFDF91CF910895E0ECF0E09081CA
:101E700095FFFDCF8093C6000895CF93DF93EC01CB
:101E80008881882339F0219681110E94350F89912C
:101E90008111FACFDF91CF910895262F30E0F9011B
:101EA000EB52FE4F9081492F50E04F33510508F01F
:101EB00052C1FA01E555FF4F0C9428288A3A31F4B3
:101EC000F901EB52FE4F8AE0808308958B3131F4A3
:101ED000F901EB52FE4F84E180830895833611F0BF
:101EE000843231F4F901EB52FE4F8EE18083089584
:101EF0008D3A31F4F901EB52FE4F88E28083089568
:101F00008B3209F02CC1F901EB52FE4F83E3808341
:101F10000895853541F4F901EB52FE4F8BE0808343
:101F200010923D020895F901EB52FE4F1082089580
:101F3000E0913D02F0E0E85DFC4F808380913D023E
:101F40008F5F80933D02843008F409C1E8E2F3E03A
:101F5000408191818281D901AB52BE4F1C92238175
:101F6000940F890F8213FBC0109212020895F90199
:101F7000EB52FE4F85E180830895811106C0F9017F
:101F8000EB52FE4F86E180830895F901EB52FE4F3C
:101F900010820895F901EB52FE4F87E18083089586
:101FA0008E3009F0DCC08FB78F778FBFE0E6F0E0AE
:101FB00080818861808389E08083FFCF863311F040
:101FC0008234A1F480913E018093540481E0809397
:101FD0001002E1ECF0E080818064808382E48093F1
:101FE000C600F901EB52FE4F10820895F901EB5241
:101FF000FE4F108208958A3D41F4F901EB52FE4FE5
:1020000089E2808310923D020895F901EB52FE4F60
:102010001082089590912803911105C09091EF01CD
:1020200091609093EF01E0913D02F0E0E85DFC4F9C
:10203000808380913D028F5F80933D0290912803C1
:10204000981708F08CC08091280390E0019718162B
:102050001906B4F480E090E070E060E0E8E2F3E0BC
:10206000DC01A75DBC4F8C91680F7F5F872F90E0EC
:10207000408150E041505109841795078CF301C00D
:1020800060E0F901EB52FE4F1082E0912803F0E08E
:10209000E85DFC4F8081861362C08FE08093090267
:1020A0001092F1011092F2011092F3011092F401DA
:1020B0008091280390E0019718161906BCF480E07F
:1020C00090E040E0E8E2F3E0DC01A75DBC4F2C913A
:1020D000DC01AB5DBB4F2C934F5F842F90E02081E0
:1020E00030E0215031098217930774F381E0809327
:1020F000ED0108958E3431F4F901EB52FE4F84E383
:1021000080830895F901EB52FE4F108208958134C7
:1021100041F410923D02F901EB52FE4F85E38083BA
:102120000895F901EB52FE4F10820895F901EB5228
:10213000FE4F9F5F9083089580931703F901EB5240
:10214000FE4F8EE38083089580931803F901EB52CC
:10215000FE4F10820895F901EB52FE4F1082089550
:102160001F920F920FB60F9211242F933F934F930C
:102170005F936F937F938F939F93AF93BF93EF93EF
:10218000FF938091CE0061E00E944D0FFF91EF918F
:10219000BF91AF919F918F917F916F915F914F917F
:1021A0003F912F910F900FBE0F901F9018951F9287
:1021B0000F920FB60F9211242F933F934F935F937B
:1021C0006F937F938F939F93AF93BF93EF93FF93FF
:1021D0008091C60060E00E944D0FFF91EF91BF918A
:1021E000AF919F918F917F916F915F914F913F91AF
:1021F0002F910F900FBE0F901F9018951F920F9266
:102200000FB60F9211248F93EF93FF938091C0002C
:1022100086FD1AC0E0911901809110028E1748F4D2
:10222000E1ECF0E080818F7B808381E08093190175
:102230000BC0F0E0ED5AFB4F80818093C600809187
:1022400019018F5F80931901FF91EF918F910F908A
:102250000FBE0F901F901895909118028091180250
:102260008F702091D401281769F01092F10110921B
:10227000F2011092F3011092F401809118028F7014
:102280008093D4018091D30198130DC08091D20125
:1022900021E0280F2093D201882389F01092D101E8
:1022A000909321040CC08091D10121E0280F20934C
:1022B000D101882321F01092D2019093D301909103
:1022C000210480915204892780933A0290913A0226
:1022D0008091210489238093060390913A02809192
:1022E0005204892380936F038091210480935204C8
:1022F000089580911102882349F08E7F8093110206
:102300001092170210921602109215028091060385
:1023100080FF07C0809106038E7F8093060381E0D3
:1023200001C080E090911702892B80931702809161
:10233000060381FF07C0809106038D7F809306030B
:1023400082E001C080E090911702892B80931702F0
:102350008091060382FF07C0809106038B7F8093E4
:10236000060384E001C080E090911702892B8093DE
:1023700017028091060383FF07C080910603877FC1
:102380008093060388E001C080E090911702892BBA
:10239000809317028091060385FF07C08091060392
:1023A0008F7D8093060380E201C080E09091170248
:1023B000892B8093170280916F0380FF07C0809163
:1023C0006F038E7F80936F0381E001C080E0909166
:1023D0001602892B8093160280916F0381FF07C03C
:1023E00080916F038D7F80936F0382E001C080E056
:1023F00090911602892B8093160280916F0382FFC1
:1024000007C080916F038B7F80936F0384E001C0CE
:1024100080E090911602892B8093160280916F03C1
:1024200083FF07C080916F03877F80936F0388E0ED
:1024300001C080E090911602892B80931602809152
:102440006F0385FF07C080916F038F7D80936F03BB
:1024500080E201C080E090911602892B80931602E1
:1024600080913A0280FF07C080913A028E7F80936C
:102470003A0281E001C080E090911502892B80939F
:10248000150280913A0281FF07C080913A028D7F48
:1024900080933A0282E001C080E090911502892B7E
:1024A0008093150280913A0282FF07C080913A0220
:1024B0008B7F80933A0284E001C080E09091150206
:1024C000892B8093150280913A0283FF07C0809187
:1024D0003A02877F80933A0288E001C080E09091C1
:1024E0001502892B8093150280913A0285FF07C05F
:1024F00080913A028F7D80933A0280E201C080E0B1
:1025000090911502892B8093150208951F920F92C6
:102510000FB60F9211242F933F934F935F936F93B6
:102520007F938F939F93AF93BF93EF93FF9386B562
:102530008A5186BD80910304909104049C012F5F11
:102540003F4F3093040420930304813D974008F0EB
:102550005C9A80910504909106040196909306047C
:10256000809305040E9479118091CF019091D00150
:102570009C012F5F3F4F3093D0012093CF010A97EA
:1025800050F18091FA019091FB0101969093FB012B
:102590008093FA011092D0011092CF0180910E0227
:1025A00090910F02019690930F0280930E02A895CE
:1025B00080910C0290910D02019690930D028093F0
:1025C0000C0280910A0290910B02019690930B02EB
:1025D00080930A020AC08091E301811106C00E9423
:1025E0000B0B811102C00E94500AFF91EF91BF9125
:1025F000AF919F918F917F916F915F914F913F919B
:102600002F910F900FBE0F901F90189580913B0453
:10261000882391F080913B040E94070A882311F0DF
:1026200090E801C090E08091CE018F5F8093CE0151
:102630008F77892B8093CD0120911802809117020A
:1026400030911602909115022072220F220F3072E3
:10265000322B8072880F282F232B9072892F90E0C5
:1026600095958795822BE3E5F4E09AED918320918F
:102670003B0230913C02338320913B0230913C027B
:1026800024832091FF033091000435832091FF03C0
:1026900030910004268320916603309167033783CD
:1026A0002091660330916703208720917003309159
:1026B000710321879091F9019287A9E0B3E0149604
:1026C0009C911497938715969C911597948785876D
:1026D0008C918095868711968C911197809587872C
:1026E00012968C9112978095808B13968C91809581
:1026F000818B909118022091170230E1939FC001C5
:102700001124922F9F70892B828B90911602209119
:10271000150230E1939FC0011124922F9F70892BE5
:10272000838B8091CD01848B80915A03858B20917E
:102730000102809102034091130290E1499FA001A0
:1027400011244F73880F880F8C70842B90E4299F7D
:1027500090011124822B868B178A83E090E0DC01A4
:10276000AD5ABB4F3C912789230F278B01968731A8
:102770009105A9F785E18093550487E180931002C4
:10278000E1ECF0E08081806480838DEC8093C60072
:1027900081E080931102089580913B0290913C0268
:1027A0004E9754F480913B0290913C0221E0833E8D
:1027B0009F4F1CF420E001C020E08091FF03909126
:1027C00000044E97CCF48091FF03909100042130D7
:1027D000A9F4833E9F4FA4F0809166039091670314
:1027E000873491057CF480916603909167038A3B5E
:1027F0009F4F54F484E009C080E007C080E005C02A
:1028000080E003C088E001C080E02091FF033091A8
:1028100000042F31310514F0806408C02091FF03BB
:1028200030910004223E3F4F0CF4806820913B021F
:1028300030913C022F31310514F0806208C02091A4
:102840003B0230913C02223E3F4F0CF480612091CC
:10285000FF03309100042F3431050CF08260209189
:102860007003309171032A35310508F0816080933F
:10287000F9010895843011F0823068F4729A109250
:10288000F80181E08093F70184E68093F50182ED01
:102890008093F6010895873061F4729881E0809307
:1028A000F8011092F7011092F50189ED8093F6017D
:1028B0000895823069F4729881E08093F801109253
:1028C000F70180E58093F50184ED8093F60108958A
:1028D000883069F4729881E08093F8011092F701D2
:1028E0008FE08093F50184E68093F60108958630A9
:1028F00069F472981092F80181E08093F70184E105
:102900008093F5018CE88093F6010895853061F499
:10291000729881E08093F7011092F80182E380932E
:10292000F50188EC8093F60108951F920F920FB67F
:102930000F9211248F929F92AF92BF92CF92DF920B
:10294000EF92FF922F933F934F935F936F937F93F9
:102950008F939F93AF93BF93CF93DF93EF93FF93A7
:102960007894EAE7F0E08081877380838091140295
:1029700080FD39C06091790080911402893060F542
:102980006F3508F46FE5C0911402C695D0E0673E3C
:1029900008F066EE70E080E090E00E94622620E0A1
:1029A00030E04EEB52E40E94D62420E030E04FE7C6
:1029B00053E40E94482720E030E047E053E40E94BF
:1029C000BA2520E030E0A9010E94D7240E943326D6
:1029D000C75FDC4F688307C0E0911402E695F0E022
:1029E000E75FFC4F6083809114028A3009F077C062
:1029F00080910E036091F501861718F460930E0321
:102A000008C090910E038091F601891710F480930D
:102A10000E0370E080E090E00E9462266B017C0172
:102A2000C9E0D3E06D8170E080E090E00E94622612
:102A3000A70196010E94D62420E030E04FE753E43E
:102A40000E9448274B015C016091F60170E080E034
:102A500090E00E946226A70196010E94D6249B0165
:102A6000AC01C501B4010E94BA2520E030E0A90103
:102A70000E94D7240E9433266D838091F70188231A
:102A800019F08D8180958D8380910E0390E02091C7
:102A9000960130919701821B930B9093970180933D
:102AA00096019C01992324F422273327281B390BF4
:102AB000253631056CF0992334F080910203815062
:102AC0008093020305C0809102038F5F809302030D
:102AD00080910E0390E090939701809396018091EE
:102AE00014028F5F809314028C3010F01092140245
:102AF000FF91EF91DF91CF91BF91AF919F918F9116
:102B00007F916F915F914F913F912F91FF90EF9047
:102B1000DF90CF90BF90AF909F908F900F900FBE9F
:102B20000F901F901895F999FECF92BD81BD60BDA1
:102B3000FA9AF99A0895AF92BF92CF92DF92EF92EC
:102B4000FF920F931F93CF93DF93EC018B01809142
:102B5000DE0181116EC088818E3609F06AC08981DC
:102B6000853609F066C08A818D3609F062C08B8196
:102B70008F3609F05EC08C81883709F05AC08D818C
:102B8000893709F056C08E818A3709F052C08F818B
:102B90008A3209F04EC081E08093DE010F2EFAE701
:102BA000AF2EF4E0BF2EF02DF5012481358182E6B1
:102BB00090E07C01E21AF30A0F2EF7E0CF2EF4E04A
:102BC000DF2EF02DF601F582E4826F2D84EC90E08B
:102BD0000E9493156E2D85EC90E00E949315F501EF
:102BE000E080F180F194E194F108F601F182E08255
:102BF0006F2D80EC90E00E9493156E2D81EC90E09B
:102C00000E949315F501E280F380F194E194F108BC
:102C1000F092DD01E092DC01F601F382E2826F2D99
:102C200082EC90E00E9493156E2D83EC90E00E9460
:102C300093151092EB0188818052803658F5A0E000
:102C400077E0672F80E090E0262F30E0488150E069
:102C500040525109FA01EE0FFF1FEE0FFF1FEE0F5A
:102C6000FF1FE41BF50BE80FF91FEA57F54F4591DD
:102C70005491F901EE58FC4F40836F5F0196873005
:102C8000910511F7795F2196AF5F88818052803678
:102C9000C0F202C0A0E077E0A0933C0187E0870F7C
:102CA000E72FF0E0EE58FC4F10827F5F7813F8CFEB
:102CB00080E090E0FC01EE58FC4F108201968730D6
:102CC0009105C1F71092EC0110923B0120E030E039
:102CD0000093E7011093E8012093E9013093EA01A2
:102CE000DF91CF911F910F91FF90EF90DF90CF90E8
:102CF000BF90AF9008951092F00180911703811159
:102D000009C08DE791E00E943D0F85E891E00E94A7
:102D10003D0F089580913B01882331F064E670E017
:102D200087E193E00E949B1508952F923F924F9266
:102D30005F926F927F928F929F92AF92BF92CF924B
:102D4000DF92EF92FF920F931F93CF93DF93CDB754
:102D5000DEB729970FB6F894DEBF0FBECDBFFE01D8
:102D60003196CE0108961192E817F907E1F78091A4
:102D70003B0290913C020DE110E0B8010E94142842
:102D8000FB019B012D5F3F4F8091FF039091000459
:102D9000B8010E9414286D5F7F4F81E090E002C06F
:102DA000880F991F6A95E2F7121613063CF4DE01AC
:102DB000AE0FBF1F13964C91482B4C932630310514
:102DC00034F4EC0FFD1F35964081482B4083823050
:102DD000910564F0E1E0F0E0EC0FFD1FE20FF31F5E
:102DE0006081AC0155954795462B40838034910511
:102DF0000CF0E7C0E1E0F0E0EC0FFD1FE20FF31F85
:102E0000880F991F9081892B8083DBC0F401E75FD5
:102E1000FC4F80819301281B3109C90162E170E0F8
:102E20000E941428462F572F141615060CF4A2C022
:102E3000ACC0AA2D80E0088519850E1B1F0BEE245F
:102E4000E394F12CEC0EFD1EE00EF11E01E010E00B
:102E50000C0F1D1F0E0F1F1F873008F07BC077302F
:102E600008F078C0611117C0F8019081F20102C02A
:102E7000F595E795AA95E2F7A92FB0E0AE23BF2319
:102E8000AB2B29F0E0959E23D8019C9363C0E92BDE
:102E9000D801EC935FC06130C1F4F7019081F20179
:102EA00002C0F595E795AA95E2F7DF01E92FF0E07A
:102EB000EA23FB23EF2B29F0A0959A23D7019C93BB
:102EC00049C0A92BF701A08345C0623009F5F8017C
:102ED0009081E92FF0E00A2E02C0F595E7950A945B
:102EE000E2F7E0FF0BC0F10102C0EE0FFF1FAA9551
:102EF000E2F7E0959E23D8019C932CC0F10102C01B
:102F0000EE0FFF1FAA95E2F79E2BF801908322C0D7
:102F1000633001F5F7019081E92FF0E00A2E02C03D
:102F2000F595E7950A94E2F7E0FF0BC0F10102C0C6
:102F3000EE0FFF1FAA95E2F7E0959E23D7019C9321
:102F400009C0F10102C0EE0FFF1FAA95E2F79E2B08
:102F5000F70190838F5FA82FB0E0A217B3070CF49E
:102F60007BCF215031097F5FE72FF0E0E417F507B1
:102F70003CF00BC0262F372FE0E0FB2D70E0682DD2
:102F8000121613060CF455CFECCFFFEF8F1A9F0AE1
:102F900024E08216910409F039CF809118028170E3
:102FA0009091180291FD8F5F823018F00E947B167D
:102FB0001FC040E050E060E0CE0101960E94A00BEF
:102FC00017C0812C912C0F2EF5EF6F2E712CF02D48
:102FD000B12C06E010E022242394312C6894442480
:102FE00046F8512CD12CCB2C19870887AD2C0ECF4D
:102FF00029960FB6F894DEBF0FBECDBFDF91CF91FB
:103000001F910F91FF90EF90DF90CF90BF90AF9006
:103010009F908F907F906F905F904F903F902F90F8
:103020000895F999FECF92BD81BDF89A80B50895B3
:10303000009779F020E030E0000000000000000080
:1030400000000000000000002F5F3F4F8217930731
:1030500099F708950F931F93CF93DF9300D0CDB7C7
:10306000DEB78C011A82198289819A8180179107B3
:1030700070F48EED93E00E94181889819A81019670
:103080009A83898389819A818017910790F30F90A1
:103090000F90DF91CF911F910F910895CF93C6E0CC
:1030A00060E070E082E20E94DA0B8EE190E00E9424
:1030B0002A1860E070E083E20E94DA0B8EE190E073
:1030C0000E942A18C15061F760E070E089E891E041
:1030D0000E949B1580913B018823E1F3CF910895D5
:1030E0003F924F925F926F927F928F929F92AF9298
:1030F000BF92CF92DF92EF92FF920F931F93CF93E5
:10310000DF93CDB7DEB72A970FB6F894DEBF0FBEB8
:10311000CDBF8091A501813089F030F0823069F116
:10312000833009F45DC013C24EE161E18091040176
:103130000E941B0881E08093A50109C2109104013F
:1031400021E0AE014F5F5F4F61E1812F0E943008A7
:1031500089818E3121F482E08093A501F8C1163275
:1031600031F41092A50182E680930401F0C110921F
:10317000A50186E280930401EAC11091040144E2B2
:1031800060E0812F0E941B0881E090E00E942A18D5
:103190004EE161E1812F0E941B0881E090E00E94D6
:1031A0002A1845E060E1812F0E941B0881E090E031
:1031B0000E942A1840E062E1812F0E941B0881E0F2
:1031C00090E00E942A1840E06FE0812F0E941B08C7
:1031D00081E090E00E942A1883E08093A501B7C1A6
:1031E0003090040126E0AE014F5F5F4F62E0832D17
:1031F0000E9430080E94BD078093EE01EA80F12C06
:10320000FE2CEE248981E80EF11CF594E794F594E8
:10321000E794B7010F2C000C880B990B0E946426D1
:103220002B013C01CC80D12CDC2CCC248B81C80E12
:10323000D11CD594C794D594C794B6010D2C000C1D
:10324000880B990B0E9464264B015C010E8110E0F3
:10325000102F00278D81080F111D159507951595C5
:103260000795B801012E000C880B990B0E9464266B
:103270006F83788789879A87F0920204E09201042D
:10328000D0920803C092070310935C0300935B0382
:1032900020E030E040E859E3C501B4010E9448272E
:1032A00026E2321209C020E030E044EC52EC0E94E9
:1032B00048274B015C0108C020E030E044EC52E4B8
:1032C0000E9448274B015C0120E030E040E859E3D0
:1032D000C301B2010E94482720E030E044EC52E4F0
:1032E0000E9448272B013C0120E030E040E859E3F0
:1032F0006F81788589859A850E94482720E030E093
:1033000044EC52EC0E9448276B017C018091A4019F
:1033100081111CC04092A0015092A1016092A201B3
:103320007092A30180929C0190929D01A0929E01B7
:10333000B0929F01C0929801D0929901E0929A01B7
:10334000F0929B0181E08093A401FFC02DEC3CEC46
:103350004CEC5DE36091A0017091A1018091A2010C
:103360009091A3010E9448276F83788789879A8765
:103370002CEE31E548EB5DE3C301B2010E94482722
:103380009B01AC016F81788589859A850E94D7243D
:103390002CE53FE842E45EE30E94BA252B013C01A4
:1033A0006093A0017093A1018093A2019093A30167
:1033B0002DEC3CEC4CEC5DE360919C0170919D0127
:1033C00080919E0190919F010E9448276F8378878A
:1033D00089879A872CEE31E548EB5DE3C501B4019E
:1033E0000E9448279B01AC016F81788589859A8569
:1033F0000E94D7242CE53FE842E45EE30E94BA2510
:103400004B015C0160939C0170939D0180939E0130
:1034100090939F012DEC3CEC4CEC5DE360919801A6
:103420007091990180919A0190919B010E94482787
:103430006F83788789879A872CEE31E548EB5DE3C7
:10344000C701B6010E9448279B01AC016F817885B6
:1034500089859A850E94D7242CE53FE842E45EE303
:103460000E94BA256B017C016093980170939901C9
:1034700080939A0190939B010E942C26709367037E
:1034800060936603C501B4010E942C26709300046A
:103490006093FF03C301B2010E942C2670933C028B
:1034A00060933B02A7019601C701B6010E9448271D
:1034B0006F83788789879A87A5019401C501B40134
:1034C0000E9448279B01AC016F81788589859A8588
:1034D0000E94D7246F83788789879A87A7019601EE
:1034E000C701B6010E9448276B017C01A501940128
:1034F000C501B4010E9448279B01AC01C701B60178
:103500000E94D7246B017C01A3019201C301B20187
:103510000E9448279B01AC01C701B6010E94D72435
:103520000E94BB2720E030E04CEB52E40E94D624FE
:103530000E942C269B01772324F422273327261B65
:10354000370B30937103209370030E94CC132A969B
:103550000FB6F894DEBF0FBECDBFDF91CF911F91A4
:103560000F91FF90EF90DF90CF90BF90AF909F9022
:103570008F907F906F905F904F903F90089540E8BC
:103580006AE08DE00E941B0884E690E00E94181813
:1035900041E06BE08DE00E941B0881E090E00E941A
:1035A0002A1880E00E94640981E090E00E942A18B5
:1035B0004DE169E08DE00E941B0881E090E00E94EF
:1035C0002A1808954F925F926F927F928F929F92E6
:1035D000AF92BF92CF92DF92EF92FF920F931F9321
:1035E000CF93DF93CDB7DEB72E970FB6F894DEBF3B
:1035F0000FBECDBF80911902883F39F00E94BF1ADB
:103600000E94BD078093190276C103E010E01F827B
:10361000188619861A86812C912C540126E0AE0159
:103620004F5F5F4F60E08DE00E9430080E94BD0751
:103630008093190240907304509074046090750454
:10364000709076046A8170E0762F66278981682BF6
:10365000072E000C880B990B0E946426A30192018F
:103660000E9448276B017C0160936A0370936B038F
:1036700080936C0390936D036C8170E0762F6627C6
:103680008B81682B072E000C880B990B0E946426F7
:10369000A30192010E9448272B013C016093110372
:1036A000709312038093130390931403A701960160
:1036B000C501B4010E94D7244B015C01A301920112
:1036C0006F81788589859A850E94D7246F83788752
:1036D00089879A870150110909F0A0CFB7FAB094F1
:1036E000B7F8B09480926A0390926B03A0926C0337
:1036F000B0926D036B017C01F7FAF094F7F8F09447
:10370000C0921103D0921203E0921303F0921403BB
:1037100080911A01882321F00E941B0910921A013E
:103720000E94760840902A0250902B0260902C0252
:1037300070902D0280902E0290902F02A090300267
:10374000B0903102A501940160916A0370916B03FE
:1037500080916C0390916D030E94D62420E030E0AC
:1037600044E354E40E9448276B017C01A5019401C5
:10377000C301B2010E94D6249B01AC01C701B6016E
:103780000E94BA2520E030E044EB53E40E94D624A6
:103790006B017C0160936A0370936B0380936C03ED
:1037A00090936D038091260290912702A0912802A8
:1037B000B09129028F839887A987BA879C01AD01B0
:1037C000609111037091120380911303909114037F
:1037D0000E94D62420E030E044E354E40E944827CD
:1037E0006B877C878D879E872F81388549855A8591
:1037F000609122027091230280912402909125020F
:103800000E94D6249B01AC016B857C858D859E85AD
:103810000E94BA2520E030E044EB53E40E94D62415
:103820009B01AC0160931103709312038093130307
:1038300090931403C701B6010E9456256B017C01C9
:1038400020E030E0A9010E94B525882354F420ED42
:103850003FE049EC50E4C701B6010E94D7246B0158
:103860007C0120ED3FE049EC50E4C701B6010E9425
:103870003B27181654F420ED3FE049EC50E4C70113
:10388000B6010E94D6246B017C0120E030E044E3C5
:1038900053E4C701B6010E94482720ED3FE049E408
:1038A00050E40E94BA2520E030E04FE753E40E9444
:1038B000482720E030E044EB53E40E94BA2520E0A2
:1038C00030E0A9010E94D7240E943326162F60936E
:1038D000690320E030E04AEF54E4C501B4010E94DE
:1038E000D7249B01AC01C301B2010E943B271816EB
:1038F00014F410935A032E960FB6F894DEBF0FBE41
:10390000CDBFDF91CF911F910F91FF90EF90DF908E
:10391000CF90BF90AF909F908F907F906F905F906F
:103920004F9008950E94E21A0895CF92DF92EF928D
:10393000FF920F931F93CF93DF93CDB7DEB76097BE
:103940000FB6F894DEBF0FBECDBF90E1EDE5F1E01C
:10395000DE01119601900D929A95E1F78E010F5FAD
:103960001F4F6E0121E1C20ED11CE82EF12CF8018F
:10397000819191918F010E94510D80913F01F82F0B
:10398000FE9DC001FF9D900D11240E942A180C1568
:103990001D0569F760960FB6F894DEBF0FBECDBF68
:1039A000DF91CF911F910F91FF90EF90DF90CF901B
:1039B00008951F920F920FB60F9211248FB78F7731
:1039C0008FBFE0E6F0E088E1808388E08083FFCF6E
:1039D000F89415B81BB818B81EB814B81AB817B8A8
:1039E0001DB8E8E6F0E0808182608083D99AECE639
:1039F000F0E080818F608083E1ECF0E08081877669
:103A0000808383B7817F846083BF10927A00E4E66D
:103A1000F0E080818FEF8083A5E6B0E08C918D632C
:103A20008C938081826080830FB6F894A8958091F2
:103A30006000886180936000109260000FBE85B7BF
:103A4000806685BF8F7D85BF789483B7816083BF93
:103A5000889508951F920F920FB60F9211242F93FD
:103A60003F934F935F936F937F938F939F93AF9306
:103A7000BF93EF93FF9386E08093B2008091780428
:103A800090917904019690937904809378048091C1
:103A9000F1019091F201A091F301B091F401AC0118
:103AA000BD014F5F5F4F6F4F7F4F4093F1015093C8
:103AB000F2016093F3017093F401813C944DA140B5
:103AC000B10518F00E94E81C74C08091F10190913A
:103AD000F201A091F301B091F40182379740A10562
:103AE000B10550F180913D01811126C01092ED0188
:103AF00081E080933D0110922E0210922F021092CD
:103B000030021092310210922A0210922B0210926F
:103B10002C0210922D02109226021092270210926F
:103B2000280210922902109222021092230210926F
:103B30002402109225023DC08091F1019091F20182
:103B4000A091F301B091F401893B9B40A105B1051F
:103B500080F18091180282FF2CC08091180283FFAF
:103B600028C01092ED0181E08093E3011AB814B8E7
:103B70001DB810922E0210922F0210923002109255
:103B8000310210922A0210922B0210922C021092F3
:103B90002D021092260210922702109228021092F3
:103BA00029021092220210922302109224021092F3
:103BB00025028091E301882309F477C080911802DF
:103BC00080FD73C08091180281FD6FC08091180242
:103BD00082FD6BC08091180283FD67C01092ED01D9
:103BE0000E94E81C62C0FC01E75FFC4F2081273E79
:103BF00078F030911802AB01082E02C0440F551F17
:103C00000A94E2F7242F209523232093180213C04F
:103C1000FC01E75FFC4F20812C3D68F440911802C5
:103C2000FB01082E02C0EE0FFF1F0A94E2F79F016E
:103C3000242B20931802019686309105A1F68091DD
:103C4000F701882399F080910E03853530F4809137
:103C500018028F7D8093180209C080910E038A3666
:103C600028F0809118028062809318028091F801F8
:103C7000882331F09091180280E2892780931802FE
:103C8000E0911402F0E0E05CFE4F8081806680935A
:103C90007C00EAE7F0E08081886C80830E94D90D87
:103CA0000E94730D0E942C1105C080E090E061E03D
:103CB00070E099CFFF91EF91BF91AF919F918F915C
:103CC0007F916F915F914F913F912F910F900FBE18
:103CD0000F901F901895CF93DF9380E387B980EC06
:103CE00088B996E19AB9C6E0CBB923E024B985B981
:103CF0001DB81EB8E0E6F0E080818861808399E01D
:103D000090831DB8D4E0DEB9E0ECF0E08081826001
:103D10008083E8ECF0E0808182608083E1ECF0E079
:103D2000808188698083E9ECF0E08081806980830C
:103D300080E18093CC008093C4008FB780688FBFF0
:103D400025BD86EE86BDEEE6F0E080818160808351
:103D500080E4809380009093810080E090E00E9456
:103D6000610D1092B000E1EBF0E08081846080830F
:103D7000E0E7F0E0808181608083C093B20080E65C
:103D800080937C00D0937A000E94B1078AE090E093
:103D90000E942A185C988AE090E00E942A1880E02D
:103DA00090E0FC01EB5DFB4F108201968D32910596
:103DB000C1F789EC90E00E9411188F3F29F460E070
:103DC00089EC90E00E94931588EC90E00E94111815
:103DD0008F3F29F460E088EC90E00E94931587EC17
:103DE00090E00E9411188F3F29F460E087EC90E08A
:103DF0000E94931584EC90E00E94111890E0982F97
:103E00008827C7E0D4E09D838C8385EC90E00E94F6
:103E100011182C813D81282B3D832C838C819D8121
:103E2000019621F410920C0410920B0482EC90E0A5
:103E30000E94111890E0982F8827C7E0D4E09B8358
:103E40008A8383EC90E00E9411182A813B81282B01
:103E50003B832A838A819B81019621F410920A0474
:103E60001092090480EC90E00E94111890E0982FC5
:103E70008827C7E0D4E09983888381EC90E00E9492
:103E8000111828813981282B3983288388819981C9
:103E9000019621F41092080410920704DF91CF914B
:103EA0000895CF93C82F80910C0290910D020E942B
:103EB000A2280E949D286C2F70E00E9414288F5F1A
:103EC000CF910895CF92DF92EF92FF920F931F93BD
:103ED000CF93DF93882309F48EC11092CC0180E048
:103EE00090E0FC01EE58FC4F1082FC01EE5FFD4FAC
:103EF0001082019687309105A1F784EF91E09093AD
:103F00001801809317018AE090E090931601809346
:103F1000150187E00E94511F282F30E030931401D3
:103F20002093130127E030E0309312012093110118
:103F30002FEF3FEF3093100120930F0130930E01CC
:103F400020930D0123E030E03093CB012093CA0190
:103F500091E090930C01682F660F660F660F681B47
:103F6000695F82E00E948A0966E182E00E948A0914
:103F70006DE182E00E948A091092C90110920B0241
:103F800010920A028091CC018F5F8093CC0180E077
:103F900090E03AC180910A0290910B02C091170102
:103FA000D0911801C817D90708F0B4C010920B02BD
:103FB00010920A02009113011091140180910F01D7
:103FC000909110019801280F391F2730310544F0D6
:103FD0009195819591099093100180930F0109C0EB
:103FE00033233CF49195819591099093100180932E
:103FF0000F01E0901101F090120180910D0190915C
:104000000E019701280F391F283031053CF091959A
:104010008195910990930E0180930D01C0900D013F
:10402000D0900E01C7018C0D9D1D1816190684F045
:1040300081E08093E5011092E4018CE00E94951CE0
:104040000E944E181092CC018091C90190E0DCC012
:104050000297B4F520910F0130911001200F311F0C
:10406000822F880F880F880F821B9E2D9C0D890F31
:104070000E94070A882381F08EEE93E90E94510D79
:10408000D194C194D108D0920E01C0920D018091BB
:10409000C9018F5F8093C90180911501909116012C
:1040A000C81BD90BC233D1052CF0D0931801C09393
:1040B000170106C082E390E09093180180931701E6
:1040C00080910C01882331F1602F660F660F660F17
:1040D000601B6E0D81E00E948A0980910F01909112
:1040E0001001080F191F1093140100931301609120
:1040F0000D0170910E01E60EF71EF0921201E09292
:104100001101602F660F660F660F601B6E0D82E057
:104110000E948A098091180282FF28C08091C701FD
:10412000823020F11092C701C091CA01D091CB0119
:104130001C161D060CF044C0CE010196682F660FB8
:10414000660F660F681B6F5F81E00E948A092197E6
:10415000D093CB01C093CA016C2F660F660F660F18
:104160006C1B6F5F82E00E948A092AC0809118024E
:1041700083FF26C08091C801823010F11092C801DF
:10418000C091CA01D091CB01C530D105CCF46C2FC0
:10419000660F660F660F6C1B6F5F81E00E948A09D5
:1041A000CE0101969093CB018093CA0122966C2F89
:1041B000660F660F660F6C1B6F5F82E00E948A09B4
:1041C0008091180282FD05C0E7ECF1E080818F5FED
:1041D00080838091180283FD08C0E7ECF1E08181C3
:1041E0008F5F818380E090E00FC080E090E00CC0A2
:1041F00080E090E009C08091CC01882309F46FCE63
:10420000813009F4C7CEF4CFDF91CF911F910F9188
:10421000FF90EF90DF90CF9008950F931F93CF936F
:10422000DF93CDB7DEB727970FB6F894DEBF0FBE8A
:10423000CDBF882309F440C083E080930B01E9E0FF
:10424000F1E081E08083118288E592E0909308019B
:10425000809307011092C6011092C501E7EBF1E0CF
:10426000A9EAB1E085EC91E0119211921D921D92A4
:10427000E817F907C9F78AE090E090930601809368
:10428000050180E090E0FC01EE58FC4F1082FC013B
:10429000EE5FFD4F1082019687309105A1F781E016
:1042A0008093E50186E08093E4018091130280937E
:1042B000A80100E010E019C180910501909106016C
:1042C000039708F447C080910701909108018D324F
:1042D00021E0920730F00597909308018093070141
:1042E00005C0019790930801809307018091070111
:1042F00090910801883C910530F48AEF90E090930A
:10430000080180930701109206011092050109E04F
:1043100011E087E00E94511F8150F8018083918154
:104320008917B9F380930A01E7EBF1E045EC51E01E
:10433000208131813160219331934E175F07C1F79E
:10434000E82FEE0FFF0BE954FE4F808191819E7F95
:104350009183808360910B01462F062E000C550B34
:10436000FA01EE0FFF1FE954FE4F808191818E7F8D
:104370009183808320910A0230910B028091070182
:10438000909108018217930768F510920B02109222
:104390000A02A7EBB1E025EC31E0FD0180819181BB
:1043A00096958795819391932E173F07B9F7E9EA80
:1043B000F1E08D919D91819391932A173B07C9F765
:1043C00080910501909106010196909306018093DA
:1043D00005018091C5019091C60101969093C60197
:1043E0008093C501440F551FFA01E755FE4F8081A8
:1043F00091818C010170112780FF0FC081E08093B3
:10440000E5011092E4018CE00E94951C0E944E1878
:104410000091C5011091C60168C08091180282FF09
:104420000AC08091A601823030F0615060930B0188
:104430001092A6010DC08091180283FF09C08091DF
:10444000A701823028F06F5F60930B011092A701E3
:104450008091180282FD05C0E6EAF1E080818F5F5D
:1044600080838091180283FD05C0E6EAF1E0818136
:104470008F5F818380910B01882324F486E08093F1
:104480000B0121C08730FCF010920B011CC0808111
:1044900032968D932E173F07D1F740E050E060E051
:1044A000CE0101960E94A00B809113029091A80169
:1044B0009817D9F08093A80181E08093E50186E008
:1044C0008093E40112C0E0910B01EE0FFF0BE95461
:1044D000FE4F80819181816091838083E7EBF1E0E1
:1044E000DE01119625EC31E0D2CFC80127960FB638
:1044F000F894DEBF0FBECDBFDF91CF911F910F911A
:104500000895CF93DF93CDB7DEB764970FB6F894D5
:10451000DEBF0FBECDBF109209020E946B1E16E0D7
:1045200060E070E082E20E94DA0B84E190E00E9499
:104530002A1860E070E083E20E94DA0B84E190E0E8
:104540000E942A18115061F7412C512CB12CCC2417
:10455000C394D12C0F2EF3E0AF2EF02D0F2EF5E0EB
:104560002F2EF02D6894332432F86894772471F854
:1045700005E214E07E0185E1E80EF11C15C0B110E2
:1045800007C00E947018BB24B394C12CD12C0CC05E
:10459000E1E0BE1206C00E94921CB72CC12CD12CA7
:1045A00003C0B12CC12CD12C80913D01882309F48A
:1045B0005BC18091F90182FF0FC080913D0188238A
:1045C0005CF08091F9018B7F8093F90180913D012E
:1045D000806880933D011DC08091F90183FF19C05F
:1045E00080913D018823ACF48091F901877F80930D
:1045F000F90180913D018F7780933D0180913D01CC
:1046000091E0980F90933D01843018F081E0809301
:104610003D0160903D01641479F08CED9DE90E94AC
:10462000510D40903D0180E00E945A0D80913D0166
:10463000813009F0B4C107C080913D01813039F467
:10464000511005C1462C0E949516512C0DC1809128
:104650003D01823009F087C0F2E05F1659F1F5158F
:1046600030F0552079F081E05816B1F0F2C0E4E066
:104670005E1609F440C05E1678F1F5E05F1609F4A5
:104680006AC0E7C0462C64E670E088E891E00E94CA
:104690009B1555245394E8C080913B01882309F46D
:1046A000DAC062E370E08BE891E00E949B15462C33
:1046B000572CDAC080913B01882309F4CEC088ECE6
:1046C00090E00E94111842E350E060E090E00E9408
:1046D000100C462C5A2CC8C080913B01882309F449
:1046E000BEC084E690E00E942A1881E00E940D215D
:1046F000462C532CB9C080E00E940D214C01892B1F
:1047000009F4AFC088EC90E00E941118482F940182
:1047100028503109ABEABAEA0E942E284C0196943F
:104720008794842F90E08815990528F4682D88ECEB
:1047300090E00E94931580913B018823E1F381145E
:10474000910431F042E350E060E0C4010E94100C9B
:10475000462C522C89C080913B01882309F483C0E8
:10476000462C5A2C81C0462C80913D01833009F0A3
:104770007BC082E0581641F1851530F0552071F06C
:10478000E1E05E16A1F070C0F4E05F16D9F15F16AB
:1047900060F185E0581609F454C066C064E670E024
:1047A00083E991E00E949B15552453945DC080914C
:1047B0003B01882309F458C062E370E08BE891E084
:1047C0000E949B15572C50C080913B01882309F40F
:1047D0004BC089EC90E00E94111842E350E060E089
:1047E00090E00E94100C5A2C3FC080913B0188231E
:1047F000D9F184E690E00E942A1881E00E94621FAD
:10480000532C32C080E00E94621F4C01892B61F161
:1048100089EC90E00E94111890E08815990528F421
:10482000682D89EC90E00E94931580913B018823CC
:10483000E1F342E350E060E0C4010E94100C522C0E
:1048400013C080913B01882379F05A2C0DC0462C6F
:104850000BC0462C09C0462C07C0462C05C0462C70
:1048600003C0462C01C0462C80910902882309F41C
:104870008BC00E94061380913D01882351F060E0B7
:1048800070E089E891E00E949B1580913B018823AC
:10489000E1F3F80182890E943A1410923D01F80177
:1048A0008685678570E0782B808188237CF48781FA
:1048B000882334F4AB0161E0C8010E94A00B33C02F
:1048C000AB0160E0C8010E94A00B2DC0F8018189F6
:1048D000882321F081890E94DA0B25C0F80187899D
:1048E000882309F1FE0131961192EE16FF06E1F7D9
:1048F000F8018789882399F020E0822F90E0FC015D
:10490000E35CFB4F3081E1E0F0E0EC0FFD1FE80FCE
:10491000F91F30832F5FF8018789281770F3CE01C4
:1049200001960E949B15F8018089807C49F060897E
:1049300080896F7382958695869583700E948A0917
:10494000F8018489811103C08589882351F0F80119
:104950008489882334F42489858990E0922B0E94ED
:10496000510DF801838988231CF483890E945A0D14
:104970001092090280E090E0FC01EB5DFB4F108299
:1049800001968D329105C1F70E942C0AF5E6CF16EB
:10499000D10408F0F4CD8FEFC81AD80A05CE809163
:1049A0003D01823009F46FCE512CDECE5058BB272A
:1049B000AA270E94EE240C9401270E94F32638F0C7
:1049C0000E94FA2620F039F49F3F19F426F40C9443
:1049D000C9260EF4E095E7FB0C94C326E92F0E944C
:1049E000122758F3BA17620773078407950720F058
:1049F00079F4A6F50C9434270EF4E0950B2EBA2F1B
:104A0000A02D0B01B90190010C01CA01A0011124D4
:104A1000FF27591B99F0593F50F4503E68F11A1680
:104A2000F040A22F232F342F4427585FF3CF469511
:104A300037952795A795F0405395C9F77EF41F1633
:104A4000BA0B620B730B840BBAF09150A1F0FF0FFD
:104A5000BB1F661F771F881FC2F70EC0BA0F621FE9
:104A6000731F841F48F4879577956795B795F795D9
:104A70009E3F08F0B0CF9395880F08F09927EE0F6E
:104A80009795879508950E94F32660F080E891E05D
:104A900009F49EEF0E94FA2628F040E851E071F4F4
:104AA0005EEF0CC00C94C9260C943427E92FE078F3
:104AB0000E94122740F3092E052AB1F32617370763
:104AC0004807590738F00E2E07F8E02569F0E02571
:104AD000E0640AC0EF6307F8009407FADB01B9014C
:104AE0009D01DC01CA01AD01EF930E94D1250E9416
:104AF00001270E9486255F91552339F02BED3FE079
:104B000049E450FD49EC0C94D7240895DF93DD2748
:104B1000B92FBF7740E85FE31616170648075B0713
:104B200018F4D92F0E9440279F938F937F936F9300
:104B30000E94FB27E4EDF1E00E94CC260E940127B1
:104B40002F913F914F915F910E945B27DD2351F0A0
:104B50009058A2EA2AED3FE049EC5FE3D0785D2768
:104B60000E94EE24DF910C9401270E949F2608F4F6
:104B700081E008950E94CE250C9401270E94FA2618
:104B800058F00E94F32640F029F45F3F29F00C947E
:104B9000C32651110C9435270C94C9260E94122764
:104BA00068F39923B1F3552391F3951B550BBB275C
:104BB000AA2762177307840738F09F5F5F4F220FA1
:104BC000331F441FAA1FA9F335D00E2E3AF0E0E898
:104BD00032D091505040E695001CCAF72BD0FE2FE2
:104BE00029D0660F771F881FBB1F26173707480776
:104BF000AB07B0E809F0BB0B802DBF01FF2793582E
:104C00005F4F3AF09E3F510578F00C94C3260C9408
:104C100035275F3FE4F3983ED4F386957795679503
:104C2000B795F7959F5FC9F7880F911D9695879562
:104C300097F90895E1E0660F771F881FBB1F621781
:104C400073078407BA0720F0621B730B840BBA0B3F
:104C5000EE1F88F7E09508950E9433266894B111FD
:104C60000C94352708950E941A2788F09F5798F0D2
:104C7000B92F9927B751B0F0E1F0660F771F881F61
:104C8000991F1AF0BA95C9F714C0B13091F00E947B
:104C90003427B1E008950C943427672F782F8827A4
:104CA000B85F39F0B93FCCF3869577956795B395A2
:104CB000D9F73EF490958095709561957F4F8F4F11
:104CC0009F4F0895E89409C097FB3EF49095809516
:104CD000709561957F4F8F4F9F4F9923A9F0F92FC2
:104CE00096E9BB279395F695879577956795B79540
:104CF000F111F8CFFAF4BB0F11F460FF1BC06F5F26
:104D00007F4F8F4F9F4F16C0882311F096E911C037
:104D1000772321F09EE8872F762F05C0662371F058
:104D200096E8862F70E060E02AF09A95660F771F6C
:104D3000881FDAF7880F9695879597F90895990F48
:104D40000008550FAA0BE0E8FEEF16161706E80755
:104D5000F907C0F012161306E407F50798F0621B76
:104D6000730B840B950B39F40A2661F0232B242B4B
:104D7000252B21F408950A2609F4A140A6958FEF6A
:104D8000811D811D089597F99F6780E870E060E0BC
:104D900008959FEF80EC0895DF93CF931F930F93B7
:104DA000FF92EF92DF927B018C01689406C0DA2EAD
:104DB000EF010E945B27FE01E894A59125913591B2
:104DC00045915591A6F3EF010E94EE24FE01970153
:104DD000A801DA9469F7DF90EF90FF900F911F918F
:104DE000CF91DF91089500240A941616170618062D
:104DF0000906089500240A941216130614060506DF
:104E00000895092E0394000C11F4882352F0BB0F6F
:104E100040F4BF2B11F460FF04C06F5F7F4F8F4FD2
:104E20009F4F089557FD9058440F551F59F05F3F0D
:104E300071F04795880F97FB991F61F09F3F79F0BC
:104E400087950895121613061406551FF2CF46953E
:104E5000F1DF08C0161617061806991FF1CF8695C0
:104E60007105610508940895E894BB2766277727A4
:104E7000CB0197F908950E949F2608F48FEF0895BB
:104E80009B01AC0160E070E080E89FE30C94BA25E0
:104E90000E945B270C9401270E94F32638F00E94A1
:104EA000FA2620F0952311F00C94C3260C94C92601
:104EB00011240C9435270E94122770F3959FC1F39B
:104EC000950F50E0551F629FF001729FBB27F00DB8
:104ED000B11D639FAA27F00DB11DAA1F649F66270D
:104EE000B00DA11D661F829F2227B00DA11D621F5C
:104EF000739FB00DA11D621F839FA00D611D221F16
:104F0000749F3327A00D611D231F849F600D211DF9
:104F1000822F762F6A2F11249F5750409AF0F1F07C
:104F200088234AF0EE0FFF1FBB1F661F771F881FE5
:104F300091505040A9F79E3F510580F00C94C32634
:104F40000C9435275F3FE4F3983ED4F3869577952C
:104F50006795B795F795E7959F5FC1F7FE2B880F8B
:104F6000911D9695879597F9089519F416F40C9468
:104F7000C9260C94FF270E941A27B8F39923C9F376
:104F8000B6F39F57550B87FF0E940D280024A0E61B
:104F900040EA900180585695979528F4805C660FFA
:104FA000771F881F20F026173707480730F4621B49
:104FB000730B840B202931294A2BA695179407944B
:104FC000202531254A2758F7660F771F881F20F0C4
:104FD00026173707480730F4620B730B840B200D3C
:104FE000311D411DA09581F7B901842F9158880F7B
:104FF0009695879508959B01AC010C9448279F3F97
:1050000031F0915020F4879577956795B795880F83
:10501000911D9695879597F9089591505040660F88
:10502000771F881FD2F7089597FB072E16F4009478
:1050300007D077FD09D00E943D2807FC05D03EF43B
:10504000909581959F4F0895709561957F4F089534
:10505000EE0FFF1F0590F491E02D0994A29FB0017F
:10506000B39FC001A39F700D811D1124911DB29F9C
:10507000700D811D1124911D0895AA1BBB1B51E1C8
:1050800007C0AA1FBB1FA617B70710F0A61BB70BB8
:10509000881F991F5A95A9F780959095BC01CD015D
:1050A00008958F929F92AF92BF92CF92DF92EF922C
:1050B000FF92CF93DF93EC01688179818A819B8194
:1050C000611571058105910521F464E279ED8BE5A7
:1050D00097E02DE133EF41E050E00E94AD28490117
:1050E0005A019B01AC01A7EAB1E40E94CC286B01F4
:1050F0007C01ACEEB4EFA50194010E94DA28DC013A
:10510000CB018C0D9D1DAE1DBF1DB7FF03C00197C8
:10511000A109B04888839983AA83BB839F77DF91D5
:10512000CF91FF90EF90DF90CF90BF90AF909F9086
:105130008F9008950E945128089580E091E00E9488
:1051400051280895A0E0B0E0809300019093010100
:10515000A0930201B09303010895052E97FB1EF45E
:1051600000940E94C42857FD07D00E94DF2807FC46
:1051700003D04EF40C94C428509540953095219559
:105180003F4F4F4F5F4F0895909580957095619573
:105190007F4F8F4F9F4F08950E942E28A59F900DFF
:1051A000B49F900DA49F800D911D11240895B7FF09
:1051B0000C94CC280E94CC28821B930B0895A1E26A
:1051C0001A2EAA1BBB1BFD010DC0AA1FBB1FEE1F81
:1051D000FF1FA217B307E407F50720F0A21BB30BCC
:1051E000E40BF50B661F771F881F991F1A9469F748
:1051F00060957095809590959B01AC01BD01CF01A4
:105200000895F894FFCF01000000260A005802011B
:10521000000301FFFFFFFF040003003200F401015F
:105220000100400000002000000080000004000099
:10523000000800000000000100200000000008003D
:10524000000102010104030F020F010F000F070FFD
:10525000060FF8B93B3435672FBE2CDC278323A318
:105260001FDC1DDC1DA31F8323DC27BE2C672F340E
:1052700035B93BDC1DB317EE13EE0EEE0EEE13B395
:1052800017DC1D41542B4E414D45000D0A003220C4
:1052900000482D53434F52450033200000F40101D4
:1052A0000100400000002000000080000004000019
:1052B00000080000000000010020000000000800BD
:1052C000000102010104030F020F010F000F070F7D
:1052D000060FF8B93B3435672FBE2CDC278323A398
:1052E0001FDC1DDC1DA31F8323DC27BE2C672F348E
:1052F00035B93BDC1DB317EE13EE0EEE0EEE13B315
:1053000008950E94E328A59F900DB49F900DA49F3F
:10531000800D911D11240895B7FF0C9481290E94DE
:105320008129821B930B0895A1E21A2EAA1BBB1B95
:10533000FD010DC0AA1FBB1FEE1FFF1FA217B30761
:10534000E407F50720F0A21BB30BE40BF50B661F77
:10535000771F881F991F1A9469F76095709580953B
:1053600090959B01AC01BD01CF010895F894FFCF4A
:10537000010000000A00580201000301FFFFFFFFC7
:10538000040003003200F401580201010040000053
:105390000020000000800000040000000800000061
:1053A00000000100200000000008000001020101CF
:1053B00004030F020F010F000F070F060FF8B93B90
:1053C0003435672FBE2CDC278323A31FDC1DDC1D97
:1053D000A31F8323DC27BE2C672F3435B93BDC1D8C
:1053E000B317EE13EE0EEE0EEE13B317DC1D2040D6
:1053F0002000000000000000002040200204020005
:1054000000000000000000020402402040000000F4
:1054100000000000004020400402040000000000E2
:1054200000000004020441542B414444523F004117
:10543000542B4E414D453F002000322E20482D5325
:10544000434F524500332E20482D53434F524500C1
:10545000342E20482D53434F524500414444524579
:105460005353004E414D45004552524F520020408B
:105470002000000000000000002040200204020084
:10548000523F0041542B4E414D453F002000322EEB
:1054900020482D53434F524500332E20482D53436F
:1054A0004F524500342E20482D53434F5245004162
:1054B000444452455353004E414D45004552524FCE
:1054C000520020402000000000000000002040208A
:1054D000020402000000000000000002040240205C
:1054E00040000000000000000040204004020400D2
:1054F0000000000000000004020441542B41444419
:1055000000402040040204000000000000000004ED
:10551000020441542B414444523F0041542B4E411C
:105520004D453F002000322E20482D53434F524519
:1055300000332E20482D53434F524500342E20482F
:105540002D53434F52450041444452455353004E5E
:10555000414D45004552524F52002040200000006E
:1055600000000000002040200204020000000000B3
:105570000000000204024020400000000000000083
:10558000FFFFFFFFFFFFFFFFFFFFFFFFFFFFFFFF2B
:10559000FFFFFFFFFFFFFFFFFFFFFFFFFFFFFFFF1B
:1055A000FFFFFFFFFFFFFFFFFFFFFFFFFFFFFFFF0B
:1055B000FFFFFFFFFFFFFFFFFFFFFFFFFFFFFFFFFB
:107E0000112484B714BE81FFEFD085E080938100F8
:107E100082E08093C00088E18093C10086E0809377
:107E2000C20080E18093C4008DE0C8D086E020E3EA
:107E30003CEF91E0309385002093840096BBB09B8B
:107E4000FECF1D9AA8958150A9F7CC24DD24882463
:107E50008394B5E0AB2EA1E19A2EF3E0BF2EA2D021
:107E6000813461F49FD0082FAFD0023811F001386F
:107E700011F484E001C083E08DD089C0823411F414
:107E800084E103C0853419F485E0A6D080C085352F
:107E900079F488D0E82EFF2485D0082F10E0102F29
:107EA00000270E291F29000F111F8ED068016FC0F7
:107EB000863521F484E090D080E0DECF843609F06E
:107EC00040C070D06FD0082F6DD080E0C81680E71A
:107ED000D80618F4F601B7BEE895C0E0D1E062D04C
:107EE00089930C17E1F7F0E0CF16F0E7DF0618F002
:107EF000F601B7BEE89568D007B600FCFDCFA60135
:107F0000A0E0B1E02C9130E011968C91119790E0B7
:107F1000982F8827822B932B1296FA010C0187BE8B
:107F2000E89511244E5F5F4FF1E0A038BF0751F78D
:107F3000F601A7BEE89507B600FCFDCF97BEE89511
:107F400026C08437B1F42ED02DD0F82E2BD03CD0C3
:107F5000F601EF2C8F010F5F1F4F84911BD0EA9425
:107F6000F801C1F70894C11CD11CFA94CF0CD11CA4
:107F70000EC0853739F428D08EE10CD085E90AD0BF
:107F80008FE07ACF813511F488E018D01DD080E1E0
:107F900001D065CF982F8091C00085FFFCCF9093D2
:107FA000C60008958091C00087FFFCCF8091C0007B
:107FB00084FD01C0A8958091C6000895E0E6F0E038
:107FC00098E1908380830895EDDF803219F088E096
:107FD000F5DFFFCF84E1DECF1F93182FE3DF1150D1
:107FE000E9F7F2DF1F91089580E0E8DFEE27FF2731
:107FF0000994FFFFFFFFFFFFFFFFFFFFFFFF0404E8
:00000001FF
